:020000040800F2
:100000000005002001010008990A0008FF0200080D
:10001000950A000875010008B90E000800000000EC
:10002000000000000000000000000000B10B00080C
:1000300079010008000000009B0A0008C50C0008B8
:100040001B0100081B0100081B0100081B01000820
:100050001B0100081B0100081B0100081B01000810
:100060001B0100081B0100081B0100081B01000800
:100070001B0100081B0100081B0100081B010008F0
:100080001B0100081B0100081B0100081B010008E0
:100090001B0100081B0100081B0100081B010008D0
:1000A0001B0100081B0100081B0100081B010008C0
:1000B0001B0100081B010008000000001B010008D4
:1000C0001B01000800000000000000001B010008E8
:1000D000000000001B0100081B01000800000000D8
:1000E0001B0100081B0100081B010008DFF80CD0F1
:1000F00000F02EF800480047B91000080005002065
:100100000648804706480047FEE7FEE7FEE7FEE7B1
:10011000FEE7FEE7FEE7FEE7FEE7FEE7C90C0008A4
:10012000ED00000830B50B460146002020220124D6
:1001300009E021FA02F59D4205D303FA02F5491BB5
:1001400004FA02F52844151EA2F10102F1DC30BDCB
:10015000064C074D06E0E06840F0010394E8070014
:1001600098471034AC42F6D3FFF7C4FF841100085F
:10017000A411000800BFFEE77047000010B542F26E
:1001800010701649088000BF0121154800F0E6F8FC
:100190000BE012480088401E10490880084600887D
:1001A00018B90C2000F048FC10BD0E490C4800F0B6
:1001B000EDF80028EDD00022A021094800F07EF9DA
:1001C0000849491C064800F0E1F80028DCD001216C
:1001D000034800F0CFF80020E6E700008C00002084
:1001E00000540040010000102DE9F04102460025B6
:1001F0000026002000230024002791F803C00CF003
:100200000F0591F803C00CF0100CBCF1000F03D0E7
:1002100091F802C04CEA050591F800C0BCF1000F4E
:1002200031D0146800202BE04FF0010C0CFA00F3E1
:10023000B1F800C00CEA03069E4220D183004FF0C3
:100240000F0C0CFA03F7BC4305FA03FC4CEA040458
:1002500091F803C0BCF1280F06D14FF0010C0CFA45
:1002600000FCC2F814C00AE091F803C0BCF1480FCA
:1002700005D14FF0010C0CFA00FCC2F810C0401C74
:100280000828D1D31460B1F800C0BCF1FF0F34DDF1
:10029000546800202EE000F1080C4FF0010808FA25
:1002A0000CF3B1F800C00CEA03069E4221D1830092
:1002B0004FF00F0C0CFA03F7BC4305FA03FC4CEAB1
:1002C000040491F803C0BCF1280F05D100F1080C1B
:1002D00008FA0CF8C2F8148091F803C0BCF1480F7A
:1002E00007D100F1080C4FF0010808FA0CF8C2F829
:1002F0001080401C0828CED35460BDE8F08100BFB8
:10030000FEE721B1028842F48062028004E00288A4
:100310004FF6FF331A400280704770B50246002442
:10032000002500230020958A138B1B0445EA030651
:1003300026F07F4404EA01068E4201D1012000E04C
:10034000002070BD21B1028842F00102028004E069
:1003500002884FF6FE731A400280704721B102886E
:1003600042F48072028004E002884FF6FF631A4074
:100370000280704721B1028842F40072028004E0DA
:1003800002884FF6FF531A40028070470CB50246B0
:10039000002000230193009300920B0F019321F0A2
:1003A0007F41019B1BB1009B1433009303E0090CB8
:1003B000009B18330093009B1B680B400BB101207E
:1003C00000E000200CBD00002DE9F04385B004469C
:1003D0000D460026B1460427DFF8CC80A6884FF6EC
:1003E000C0700640684600F079FBDDF808802F48B1
:1003F000B8FBF0F01FFA80F946EA0906A6802088CB
:100400004FF6FE710840208000262949286888425E
:100410000CD828684000B8FBF0F087B2042F00DA4F
:1004200004273E4309F10100208427E0E8884BF6C9
:10043000FF71884206D1286800EB4000B8FBF0F05D
:1004400087B209E0286800EBC00101EB0010B8FB9F
:10045000F0F087B247F48047C7F30B0008B947F0C4
:10046000010747F4004006434FF4967009FB00F083
:100470004FF47A7190FBF1F0401C2084A683208811
:1004800040F00100208026884FF6F5300640A8880D
:100490006989084306432680A88929890843208161
:1004A00005B0BDE8F083000000127A0040420F0062
:1004B000A08601000146088AC0B2704712B141F01F
:1004C000010102E04FF6FE7319400182704701827C
:1004D00070472DE9F04704460E4615462046E117C1
:1004E00004EBD1614911A4EB4111CFB22846E917C1
:1004F00005EBD161C1F34718E91705EBD16149114B
:10050000A5EB411101F0FF09002F34D1B9F1000F23
:1005100013D10AE020223146204600F0D3F8FFF73D
:100520002DFE04F1200084B22036B8F10000A8F1BD
:10053000010101F0FF08EDD172E0B8F1000F12DD0A
:100540000AE020223146204600F0BCF8FFF716FEF4
:1005500004F1200084B22036B8F10000A8F10101B6
:1005600001F0FF08EDD14A463146204600F0AAF8D6
:10057000FFF704FE54E0C7F12000C2B23146204626
:1005800000F0A0F8C7F12000204484B2C7F1200099
:100590000644A5F12001C819C11700EBD161C1F3D0
:1005A0004718A5F12001C819C11700EBD161491105
:1005B000A0EB411101F0FF09B9F1000F13D10AE0DE
:1005C00020223146204600F07DF8FFF7D7FD04F1E8
:1005D000200084B22036B8F10000A8F1010101F03A
:1005E000FF08EDD11CE0B8F1000F12DD0AE0202277
:1005F0003146204600F066F8FFF7C0FD04F1200008
:1006000084B22036B8F10000A8F1010101F0FF0822
:10061000EDD14A463146204600F054F8FFF7AEFDD2
:100620000020BDE8F087000008B50121082000F097
:1006300045FA0121480500F031FA4020ADF80000EC
:100640001C208DF8030003208DF80200694608483D
:10065000FFF7CAFD8020ADF800001C208DF80300D4
:1006600003208DF8020069460148FFF7BDFD08BD73
:10067000000C014010B5FFF7D7FF00F001F810BDE6
:100680001FB54FF48060ADF80A000001ADF80C0012
:100690000A4800904BF6FF70ADF806000020ADF858
:1006A00004005F20ADF8080069460548FFF78CFE9E
:1006B00001210348FFF746FE1FBD0000801A060017
:1006C000005400402DE9F04104460D46164642F222
:1006D000107056490880270A04F0FF080CE05348C0
:1006E0000088401E514908800846008820B9012032
:1006F00000F0A2F9BDE8F0814FF400314C48FFF75B
:1007000045FE0128EBD001214948FFF727FE0BE009
:1007100046480088401E454908800846008818B9A8
:10072000012000F089F9E5E742494148FFF7F5FD6E
:100730000028EDD042F210703C4908800022A02130
:100740003B48FFF7BBFE0BE038480088401E3749A6
:1007500008800846008818B9022000F06DF9C9E742
:1007600035493348FFF7D9FD0028EDD039463048E8
:10077000FFF7ADFE42F210702C4908800BE02B48C9
:100780000088401E294908800846008818B90320BF
:1007900000F052F9AEE72849891E2548FFF7BDFD54
:1007A0000028ECD041462248FFF791FE42F210703B
:1007B0001E4908800BE01D480088401E1B49088028
:1007C0000846008818B9032000F036F992E71A4964
:1007D000891E1748FFF7A1FD0028ECD01EE02978FC
:1007E0001348FFF774FE42F21070104908800BE0C6
:1007F0000E480088401E0D4908800846008818B938
:10080000042000F019F975E70B49891C0848FFF727
:1008100084FD0028ECD06D1C701EC6B2002EDED107
:1008200001210348FFF7A6FD002063E78C000020AC
:100830000054004001000300820007002DE9F04150
:1008400005460E46144642F21070774908802F0A7A
:1008500005F0FF0801217548FFF780FD0CE07248A4
:100860000088401E704908800846008820B905208D
:1008700000F0E2F8BDE8F0816D496C48FFF74DFDEE
:100880000028ECD00022A0216848FFF717FE42F2B2
:100890001070654908800BE063480088401E62497B
:1008A00008800846008818B9062000F0C5F8E1E77E
:1008B00060495E48FFF731FD0028EDD039465B48BE
:1008C000FFF705FE42F21070574908800BE05648CA
:1008D0000088401E544908800846008818B907203F
:1008E00000F0AAF8C6E75349891E5048FFF715FDE6
:1008F0000028ECD041464D48FFF7E9FD42F2107068
:10090000494908800BE048480088401E4649088055
:100910000846008818B9072000F08EF8AAE7454974
:10092000891E4248FFF7F9FC0028ECD001213F481E
:10093000FFF714FD42F210703B4908800BE03A4883
:100940000088401E384908800846008818B90820E9
:1009500000F072F88EE736493448FFF7DEFC0028D5
:10096000EDD00122A0213148FFF7A8FD42F210701E
:100970002D4908800BE02C480088401E2A49088039
:100980000846008818B9092000F056F872E728498F
:10099000491C2648FFF7C1FC0028ECD042F2107039
:1009A000214908800BE020480088401E1E4908802D
:1009B0000846008818B90A2000F03EF85AE71C499A
:1009C0003F311A48FFF7A9FC0028ECD020E0012CA9
:1009D00003D100211548FFF794FC0BE01248008872
:1009E000401E114908800846008818B90B2000F005
:1009F00023F83FE70E493F310C48FFF78EFC0028F3
:100A0000ECD00A48FFF756FD3070761C601EC4B269
:100A1000002CDCD101210548FFF7ACFC0121034883
:100A2000FFF76FFC002025E78C00002000540040F9
:100A3000010003008200070010B50446214602A011
:100A400000F03CFA012010BD494943D7DCCFDFB5A7
:100A5000C8B4FDB3ACCAB1A3AC6572726F72636FF8
:100A600064653A25640A000008B50121102000F0F1
:100A700025F84FF40050ADF8000010208DF8030069
:100A800003208DF8020069460148FFF7ADFB08BD61
:100A90000010014000BFFEE77047704729B1064AC9
:100AA000D2690243044BDA6104E0034AD26982430B
:100AB000014BDA61704700000010024029B1064A7C
:100AC00092690243044B9A6104E0034A92698243AB
:100AD000014B9A61704700000010024030B50021C0
:100AE0000022002400232D4D6D6805F00C0121B17A
:100AF000042905D0082923D105E0294D056022E00D
:100B0000274D05601FE0254D6D6805F47012234DDB
:100B10006D6805F48034022505EB92421CB9214D25
:100B2000554305600BE01D4D6D6805F400351DB1A2
:100B30001C4D5543056002E0194D5543056002E028
:100B4000174D056000BF00BF144D6D6805F0F00142
:100B50000909154D6B5C0568DD4045600F4D6D68FA
:100B600005F4E061090A104D6B5C4568DD40856065
:100B70000A4D6D6805F46051C90A0B4D6B5C456800
:100B8000DD40C560054D6D6805F44041890B074D9A
:100B90006B5CC568B5FBF3F5056130BD0010024024
:100BA00000127A0000093D001400002024000020FB
:100BB000704710B500F002F810BD00000CB5002021
:100BC000019000903348006840F48030314908605B
:100BD00000BF3048006800F4003000900198401CCD
:100BE0000190009818B90198B0F5A06FF1D129488B
:100BF000006800F4003010B10120009001E00020F6
:100C000000900098012843D12348006840F010006C
:100C1000214908600846006820F003000860084683
:100C2000006840F0020008601A48406819494860AE
:100C30000846406848600846406840F48060486064
:100C40000846406820F47C1048600846406840F43C
:100C5000E81048600846006840F08070086000BFF7
:100C60000C48006800F000700028F9D0094840687E
:100C700020F00300074948600846406840F0020041
:100C8000486000BF0348406800F00C000828F9D114
:100C90000CBD00000010024000200240042808D1D2
:100CA0004FF0E021096941F004014FF0E0221161A9
:100CB00007E04FF0E021096921F004014FF0E02244
:100CC000116170477047000010B51348006840F08C
:100CD00001001149086008464068104908400E4963
:100CE0004860084600680E4908400B4908600846FD
:100CF000006820F4802008600846406820F4FE0068
:100D000048604FF41F008860FFF753FF4FF000600A
:100D10000449086010BD0000001002400000FFF808
:100D2000FFFFF6FE08ED00E021B1828942F4005297
:100D3000828104E082894DF6FF731A4082817047F8
:100D400000B585B001210420FFF7B8FE0121480459
:100D5000FFF7A4FE0420ADF8100018208DF8130052
:100D600003208DF8120004A91248FFF73DFA08206D
:100D7000ADF8100004208DF8130004A90D48FFF70A
:100D800033FA4FF4E13000900020ADF80400ADF8E4
:100D90000600ADF80800ADF80C000C20ADF80A0014
:100DA0006946054800F018F801210348FFF7BCFF29
:100DB00005B000BD0008014000440040024600208C
:100DC000B1F5007F00D100BF13880B400BB10120AB
:100DD00000E00020704700002DE9F04786B005468E
:100DE0000E460024A24600BFA1460027B08900B1EC
:100DF00000BF2F462C8A4CF6FF700440F088044355
:100E00002C82AC894EF6F3100440B0883189084337
:100E1000718908430443AC81AC8A4FF6FF4004401B
:100E2000B0890443AC8201A8FFF758FE1F488742EF
:100E300002D1DDF810A001E0DDF80CA0A88900F4D3
:100E4000004040B10AEBCA0000EB0A1031684900CB
:100E5000B0FBF1F807E00AEBCA0000EB0A103168BA
:100E60008900B0FBF1F86420B8FBF0F00401200920
:100E7000642101FB1089A88900F4004040B13220B0
:100E800000EBC900B0FBF1F000F00700044308E0FC
:100E9000322000EB09106421B0FBF1F000F00F00EC
:100EA00004432C8106B0BDE8F08700000038014003
:100EB000C1F308028280704700BFFEE70FB4054B04
:100EC00010B503A9044A029800F018F810BC5DF8A8
:100ED00014FB0000951000089400002002E008C8F0
:100EE000121F08C1002AFAD170477047002001E0A4
:100EF00001C1121F002AFBD1704700002DE9FF4FEE
:100F000089B09B460446002506E025280BD05A46AA
:100F10000B999047641C6D1C20780028F5D10DB00A
:100F20002846BDE8F08F0027B8460122474900E077
:100F3000074314F8013F203B02FA03F00842F7D1BF
:100F400020782E2819D114F8010F47F004072A2819
:100F50000ED06FF02F022078A0F1300109290CD8B3
:100F600008EB880102EB410100EB0108641CF2E789
:100F70000A98641C50F8048B0A9020780028CED080
:100F8000642808D0692806D075281ED05A460B99C7
:100F900090476D1C58E00A994FF00A0901C90A915F
:100FA000002802DA40422D2102E0390504D52B2128
:100FB0008DF82010012103E0F90704D02021F7E784
:100FC0008A4608AE0DE00021FAE70A994FF00A09B7
:100FD00001C90A91F7E74946FFF7A4F8303106F84E
:100FE000011D0028F7D1ADEB060000F120097807BC
:100FF00001D44FF00108C84502DDA8EB090000E06C
:1010000000208046002706E008A85A46C05D0B99DC
:1010100090476D1C7F1C5745F6DB04E030205A4694
:101020000B9990476D1CB8F10001A8F10108F5DC9F
:1010300005E016F8010B5A460B9990476D1CB9F163
:101040000001A9F10109F4DC641C65E7092801002D
:1010500010B56FF00400FFF721FE0A4800680A4946
:10106000B0FBF1F0094908700846007800EB400138
:10107000C1EBC0104FF6FF7101EAC00004490880BF
:1010800010BD00000000002000127A008E00002039
:101090009000002070B504460D46E1B20548FFF708
:1010A00007FF00BF80210348FFF788FE0028F9D022
:1010B000204670BD00440040002401250126FFF7B2
:1010C0003FFEFFF7D1FCFFF7C3FFFFF7D3FA13A0F2
:1010D000FFF7F4FE37221A490120FFF7FAF9054617
:1010E000FFF74CF815B917A0FFF7E8FE37221A49A9
:1010F0000120FFF7A3FB064616B918A0FFF7DEFE96
:10110000002406E01448015D19A0FFF7D7FE601C1B
:10111000C4B2372CF6DB00BFFEE70000D5E2CAC739
:10112000D2BBB8F649494320454550524F4D20B5F2
:10113000C4B2E2CAD4B3CCD0F2A3A10A000000002A
:1011400028000020577269746520537563636573C6
:1011500073696C790A000000980000205265616490
:101160002053756363657373696C790A000000002E
:101170000D0AB6C1B5BDB5C4CAFDBEDDA3BA2564AE
:10118000200A0000A41100080000002098000000C0
:10119000DC0E00083C1200089800002068040000E3
:1011A000EC0E000800A24A0400000000000000004D
:1011B00001020304060708090000000001020304FD
:1011C00001020304060708090204060800010203DD
:1011D0000405060708090A0B0C0D0E0F1011121357
:1011E0001415161718191A1B1C1D1E1F00010203C7
:1011F0000405060708090A0B0C0D0E0F1011121337
:101200001415161718191A1B1C1D1E1F00010203A6
:101210000405060708090A0B0C0D0E0F1011121316
:101220001415161718191A1B1C1D1E1F64C896FAD0
:0C123000000000000000000000000000B2
:04000005080000ED02
:00000001FF
